{
  "_format": "hh-sol-artifact-1",
  "contractName": "MyEpicNFT",
  "sourceName": "contracts/MyEpicNFT.sol",
  "abi": [
    {
      "inputs": [],
      "stateMutability": "nonpayable",
      "type": "constructor"
    },
    {
      "anonymous": false,
      "inputs": [
        {
          "indexed": true,
          "internalType": "address",
          "name": "owner",
          "type": "address"
        },
        {
          "indexed": true,
          "internalType": "address",
          "name": "approved",
          "type": "address"
        },
        {
          "indexed": true,
          "internalType": "uint256",
          "name": "tokenId",
          "type": "uint256"
        }
      ],
      "name": "Approval",
      "type": "event"
    },
    {
      "anonymous": false,
      "inputs": [
        {
          "indexed": true,
          "internalType": "address",
          "name": "owner",
          "type": "address"
        },
        {
          "indexed": true,
          "internalType": "address",
          "name": "operator",
          "type": "address"
        },
        {
          "indexed": false,
          "internalType": "bool",
          "name": "approved",
          "type": "bool"
        }
      ],
      "name": "ApprovalForAll",
      "type": "event"
    },
    {
      "anonymous": false,
      "inputs": [
        {
          "indexed": false,
          "internalType": "address",
          "name": "sender",
          "type": "address"
        },
        {
          "indexed": false,
          "internalType": "uint256",
          "name": "tokenId",
          "type": "uint256"
        }
      ],
      "name": "NewEpicNFTMinted",
      "type": "event"
    },
    {
      "anonymous": false,
      "inputs": [
        {
          "indexed": true,
          "internalType": "address",
          "name": "from",
          "type": "address"
        },
        {
          "indexed": true,
          "internalType": "address",
          "name": "to",
          "type": "address"
        },
        {
          "indexed": true,
          "internalType": "uint256",
          "name": "tokenId",
          "type": "uint256"
        }
      ],
      "name": "Transfer",
      "type": "event"
    },
    {
      "inputs": [
        {
          "internalType": "address",
          "name": "to",
          "type": "address"
        },
        {
          "internalType": "uint256",
          "name": "tokenId",
          "type": "uint256"
        }
      ],
      "name": "approve",
      "outputs": [],
      "stateMutability": "nonpayable",
      "type": "function"
    },
    {
      "inputs": [
        {
          "internalType": "address",
          "name": "owner",
          "type": "address"
        }
      ],
      "name": "balanceOf",
      "outputs": [
        {
          "internalType": "uint256",
          "name": "",
          "type": "uint256"
        }
      ],
      "stateMutability": "view",
      "type": "function"
    },
    {
      "inputs": [
        {
          "internalType": "uint256",
          "name": "tokenId",
          "type": "uint256"
        }
      ],
      "name": "getApproved",
      "outputs": [
        {
          "internalType": "address",
          "name": "",
          "type": "address"
        }
      ],
      "stateMutability": "view",
      "type": "function"
    },
    {
      "inputs": [],
      "name": "getTotalNFTsMintedSoFar",
      "outputs": [
        {
          "internalType": "uint256",
          "name": "",
          "type": "uint256"
        }
      ],
      "stateMutability": "view",
      "type": "function"
    },
    {
      "inputs": [
        {
          "internalType": "address",
          "name": "owner",
          "type": "address"
        },
        {
          "internalType": "address",
          "name": "operator",
          "type": "address"
        }
      ],
      "name": "isApprovedForAll",
      "outputs": [
        {
          "internalType": "bool",
          "name": "",
          "type": "bool"
        }
      ],
      "stateMutability": "view",
      "type": "function"
    },
    {
      "inputs": [],
      "name": "makeAnEpicNFT",
      "outputs": [],
      "stateMutability": "nonpayable",
      "type": "function"
    },
    {
      "inputs": [],
      "name": "name",
      "outputs": [
        {
          "internalType": "string",
          "name": "",
          "type": "string"
        }
      ],
      "stateMutability": "view",
      "type": "function"
    },
    {
      "inputs": [
        {
          "internalType": "uint256",
          "name": "tokenId",
          "type": "uint256"
        }
      ],
      "name": "ownerOf",
      "outputs": [
        {
          "internalType": "address",
          "name": "",
          "type": "address"
        }
      ],
      "stateMutability": "view",
      "type": "function"
    },
    {
      "inputs": [
        {
          "internalType": "uint256",
          "name": "tokenId",
          "type": "uint256"
        }
      ],
      "name": "pickRandomColor",
      "outputs": [
        {
          "internalType": "string",
          "name": "",
          "type": "string"
        }
      ],
      "stateMutability": "view",
      "type": "function"
    },
    {
      "inputs": [
        {
          "internalType": "uint256",
          "name": "tokenId",
          "type": "uint256"
        }
      ],
      "name": "pickRandomFirstWord",
      "outputs": [
        {
          "internalType": "string",
          "name": "",
          "type": "string"
        }
      ],
      "stateMutability": "view",
      "type": "function"
    },
    {
      "inputs": [
        {
          "internalType": "uint256",
          "name": "tokenId",
          "type": "uint256"
        }
      ],
      "name": "pickRandomSecondWord",
      "outputs": [
        {
          "internalType": "string",
          "name": "",
          "type": "string"
        }
      ],
      "stateMutability": "view",
      "type": "function"
    },
    {
      "inputs": [
        {
          "internalType": "uint256",
          "name": "tokenId",
          "type": "uint256"
        }
      ],
      "name": "pickRandomThirdWord",
      "outputs": [
        {
          "internalType": "string",
          "name": "",
          "type": "string"
        }
      ],
      "stateMutability": "view",
      "type": "function"
    },
    {
      "inputs": [
        {
          "internalType": "address",
          "name": "from",
          "type": "address"
        },
        {
          "internalType": "address",
          "name": "to",
          "type": "address"
        },
        {
          "internalType": "uint256",
          "name": "tokenId",
          "type": "uint256"
        }
      ],
      "name": "safeTransferFrom",
      "outputs": [],
      "stateMutability": "nonpayable",
      "type": "function"
    },
    {
      "inputs": [
        {
          "internalType": "address",
          "name": "from",
          "type": "address"
        },
        {
          "internalType": "address",
          "name": "to",
          "type": "address"
        },
        {
          "internalType": "uint256",
          "name": "tokenId",
          "type": "uint256"
        },
        {
          "internalType": "bytes",
          "name": "data",
          "type": "bytes"
        }
      ],
      "name": "safeTransferFrom",
      "outputs": [],
      "stateMutability": "nonpayable",
      "type": "function"
    },
    {
      "inputs": [
        {
          "internalType": "address",
          "name": "operator",
          "type": "address"
        },
        {
          "internalType": "bool",
          "name": "approved",
          "type": "bool"
        }
      ],
      "name": "setApprovalForAll",
      "outputs": [],
      "stateMutability": "nonpayable",
      "type": "function"
    },
    {
      "inputs": [
        {
          "internalType": "bytes4",
          "name": "interfaceId",
          "type": "bytes4"
        }
      ],
      "name": "supportsInterface",
      "outputs": [
        {
          "internalType": "bool",
          "name": "",
          "type": "bool"
        }
      ],
      "stateMutability": "view",
      "type": "function"
    },
    {
      "inputs": [],
      "name": "symbol",
      "outputs": [
        {
          "internalType": "string",
          "name": "",
          "type": "string"
        }
      ],
      "stateMutability": "view",
      "type": "function"
    },
    {
      "inputs": [
        {
          "internalType": "uint256",
          "name": "tokenId",
          "type": "uint256"
        }
      ],
      "name": "tokenURI",
      "outputs": [
        {
          "internalType": "string",
          "name": "",
          "type": "string"
        }
      ],
      "stateMutability": "view",
      "type": "function"
    },
    {
      "inputs": [
        {
          "internalType": "address",
          "name": "from",
          "type": "address"
        },
        {
          "internalType": "address",
          "name": "to",
          "type": "address"
        },
        {
          "internalType": "uint256",
          "name": "tokenId",
          "type": "uint256"
        }
      ],
      "name": "transferFrom",
      "outputs": [],
      "stateMutability": "nonpayable",
      "type": "function"
    }
  ],
  "bytecode": "0x608060405260405180610100016040528060d381526020016200490f60d39139600890805190602001906200003692919062000c55565b50604051806080016040528060568152602001620049e260569139600990805190602001906200006892919062000c55565b506040518061018001604052806040518060400160405280600681526020017f536d656c6c79000000000000000000000000000000000000000000000000000081525081526020016040518060400160405280600481526020017f57696c640000000000000000000000000000000000000000000000000000000081525081526020016040518060400160405280600981526020017f456e65726765746963000000000000000000000000000000000000000000000081525081526020016040518060400160405280600881526020017f43617574696f757300000000000000000000000000000000000000000000000081525081526020016040518060400160405280600781526020017f56696272616e740000000000000000000000000000000000000000000000000081525081526020016040518060400160405280600881526020017f47656e65726f757300000000000000000000000000000000000000000000000081525081526020016040518060400160405280600a81526020017f416767726573736976650000000000000000000000000000000000000000000081525081526020016040518060400160405280600781526020017f56696f6c656e740000000000000000000000000000000000000000000000000081525081526020016040518060400160405280600681526020017f4a6f7966756c000000000000000000000000000000000000000000000000000081525081526020016040518060400160405280600781526020017f4261736866756c0000000000000000000000000000000000000000000000000081525081526020016040518060400160405280600881526020017f436f6c6f7266756c00000000000000000000000000000000000000000000000081525081526020016040518060400160405280600681526020017f43617375616c0000000000000000000000000000000000000000000000000000815250815250600a90600c6200034992919062000ce6565b506040518061018001604052806040518060400160405280600581526020017f537465616b00000000000000000000000000000000000000000000000000000081525081526020016040518060400160405280600481526020017f54756e610000000000000000000000000000000000000000000000000000000081525081526020016040518060400160405280600581526020017f53616c616400000000000000000000000000000000000000000000000000000081525081526020016040518060400160405280600381526020017f506965000000000000000000000000000000000000000000000000000000000081525081526020016040518060400160405280600581526020017f506174747900000000000000000000000000000000000000000000000000000081525081526020016040518060400160405280600681526020017f507564646c65000000000000000000000000000000000000000000000000000081525081526020016040518060400160405280600581526020017f506c616e7400000000000000000000000000000000000000000000000000000081525081526020016040518060400160405280600581526020017f436861697200000000000000000000000000000000000000000000000000000081525081526020016040518060400160405280600581526020017f506f75636800000000000000000000000000000000000000000000000000000081525081526020016040518060400160405280600381526020017f426167000000000000000000000000000000000000000000000000000000000081525081526020016040518060400160405280600481526020017f436173650000000000000000000000000000000000000000000000000000000081525081526020016040518060400160405280600381526020017f4375700000000000000000000000000000000000000000000000000000000000815250815250600b90600c6200062a92919062000ce6565b506040518061018001604052806040518060400160405280600481526020017f4d65616c0000000000000000000000000000000000000000000000000000000081525081526020016040518060400160405280600481526020017f446973680000000000000000000000000000000000000000000000000000000081525081526020016040518060400160405280600781526020017f506c61747465720000000000000000000000000000000000000000000000000081525081526020016040518060400160405280600581526020017f44696e657200000000000000000000000000000000000000000000000000000081525081526020016040518060400160405280600581526020017f506c61636500000000000000000000000000000000000000000000000000000081525081526020016040518060400160405280600781526020017f486964656f75740000000000000000000000000000000000000000000000000081525081526020016040518060400160405280600481526020017f44696e6f0000000000000000000000000000000000000000000000000000000081525081526020016040518060400160405280600381526020017f446f67000000000000000000000000000000000000000000000000000000000081525081526020016040518060400160405280600381526020017f526170000000000000000000000000000000000000000000000000000000000081525081526020016040518060400160405280600481526020017f426f73730000000000000000000000000000000000000000000000000000000081525081526020016040518060400160405280600781526020017f4361707461696e0000000000000000000000000000000000000000000000000081525081526020016040518060400160405280600681526020017f4d61737465720000000000000000000000000000000000000000000000000000815250815250600c90600c6200090b92919062000ce6565b506040518060c001604052806040518060400160405280600381526020017f726564000000000000000000000000000000000000000000000000000000000081525081526020016040518060400160405280600781526020017f233038433241380000000000000000000000000000000000000000000000000081525081526020016040518060400160405280600581526020017f626c61636b00000000000000000000000000000000000000000000000000000081525081526020016040518060400160405280600681526020017f79656c6c6f77000000000000000000000000000000000000000000000000000081525081526020016040518060400160405280600481526020017f626c75650000000000000000000000000000000000000000000000000000000081525081526020016040518060400160405280600581526020017f677265656e000000000000000000000000000000000000000000000000000000815250815250600d90600662000a8992919062000d4d565b5034801562000a9757600080fd5b506040518060400160405280600981526020017f5371756172654e465400000000000000000000000000000000000000000000008152506040518060400160405280600681526020017f5351554152450000000000000000000000000000000000000000000000000000815250816000908051906020019062000b1c92919062000c55565b50806001908051906020019062000b3592919062000c55565b50505062000b836040518060400160405280601e81526020017f54686973206973206d79204e465420636f6e74726163742e20576f616821000081525062000b8960201b6200122a1760201c565b62000f6e565b62000c298160405160240162000ba0919062000e82565b6040516020818303038152906040527f41304fac000000000000000000000000000000000000000000000000000000007bffffffffffffffffffffffffffffffffffffffffffffffffffffffff19166020820180517bffffffffffffffffffffffffffffffffffffffffffffffffffffffff838183161783525050505062000c2c60201b60201c565b50565b60008151905060006a636f6e736f6c652e6c6f679050602083016000808483855afa5050505050565b82805462000c639062000ef8565b90600052602060002090601f01602090048101928262000c87576000855562000cd3565b82601f1062000ca257805160ff191683800117855562000cd3565b8280016001018555821562000cd3579182015b8281111562000cd257825182559160200191906001019062000cb5565b5b50905062000ce2919062000db4565b5090565b82805482825590600052602060002090810192821562000d3a579160200282015b8281111562000d3957825182908051906020019062000d2892919062000c55565b509160200191906001019062000d07565b5b50905062000d49919062000dd3565b5090565b82805482825590600052602060002090810192821562000da1579160200282015b8281111562000da057825182908051906020019062000d8f92919062000c55565b509160200191906001019062000d6e565b5b50905062000db0919062000dd3565b5090565b5b8082111562000dcf57600081600090555060010162000db5565b5090565b5b8082111562000df7576000818162000ded919062000dfb565b5060010162000dd4565b5090565b50805462000e099062000ef8565b6000825580601f1062000e1d575062000e3e565b601f01602090049060005260206000209081019062000e3d919062000db4565b5b50565b600062000e4e8262000ea6565b62000e5a818562000eb1565b935062000e6c81856020860162000ec2565b62000e778162000f5d565b840191505092915050565b6000602082019050818103600083015262000e9e818462000e41565b905092915050565b600081519050919050565b600082825260208201905092915050565b60005b8381101562000ee257808201518184015260208101905062000ec5565b8381111562000ef2576000848401525b50505050565b6000600282049050600182168062000f1157607f821691505b6020821081141562000f285762000f2762000f2e565b5b50919050565b7f4e487b7100000000000000000000000000000000000000000000000000000000600052602260045260246000fd5b6000601f19601f8301169050919050565b6139918062000f7e6000396000f3fe608060405234801561001057600080fd5b50600436106101215760003560e01c80636352211e116100ad578063b88d4fde11610071578063b88d4fde14610340578063c575757a1461035c578063c87b56dd1461038c578063de9d132f146103bc578063e985e9c5146103c657610121565b80636352211e1461027657806370a08231146102a657806395d89b41146102d6578063a22cb465146102f4578063b187301f1461031057610121565b8063095ea7b3116100f4578063095ea7b3146101c257806323b872dd146101de5780632de38d68146101fa57806342842e0e1461022a578063514dc8c61461024657610121565b806301ffc9a714610126578063060475901461015657806306fdde0314610174578063081812fc14610192575b600080fd5b610140600480360381019061013b9190612619565b6103f6565b60405161014d9190612d19565b60405180910390f35b61015e6104d8565b60405161016b9190612f34565b60405180910390f35b61017c6104e9565b6040516101899190612d34565b60405180910390f35b6101ac60048036038101906101a7919061266b565b61057b565b6040516101b99190612c89565b60405180910390f35b6101dc60048036038101906101d791906125dd565b6105c1565b005b6101f860048036038101906101f391906124d7565b6106d9565b005b610214600480360381019061020f919061266b565b610739565b6040516102219190612d34565b60405180910390f35b610244600480360381019061023f91906124d7565b610857565b005b610260600480360381019061025b919061266b565b610877565b60405161026d9190612d34565b60405180910390f35b610290600480360381019061028b919061266b565b610995565b60405161029d9190612c89565b60405180910390f35b6102c060048036038101906102bb9190612472565b610a47565b6040516102cd9190612f34565b60405180910390f35b6102de610aff565b6040516102eb9190612d34565b60405180910390f35b61030e600480360381019061030991906125a1565b610b91565b005b61032a6004803603810190610325919061266b565b610ba7565b6040516103379190612d34565b60405180910390f35b61035a60048036038101906103559190612526565b610cc5565b005b6103766004803603810190610371919061266b565b610d27565b6040516103839190612d34565b60405180910390f35b6103a660048036038101906103a1919061266b565b610e45565b6040516103b39190612d34565b60405180910390f35b6103c4610f58565b005b6103e060048036038101906103db919061249b565b611196565b6040516103ed9190612d19565b60405180910390f35b60007f80ac58cd000000000000000000000000000000000000000000000000000000007bffffffffffffffffffffffffffffffffffffffffffffffffffffffff1916827bffffffffffffffffffffffffffffffffffffffffffffffffffffffff191614806104c157507f5b5e139f000000000000000000000000000000000000000000000000000000007bffffffffffffffffffffffffffffffffffffffffffffffffffffffff1916827bffffffffffffffffffffffffffffffffffffffffffffffffffffffff1916145b806104d157506104d0826112c3565b5b9050919050565b60006104e4600761132d565b905090565b6060600080546104f8906131c8565b80601f0160208091040260200160405190810160405280929190818152602001828054610524906131c8565b80156105715780601f1061054657610100808354040283529160200191610571565b820191906000526020600020905b81548152906001019060200180831161055457829003601f168201915b5050505050905090565b60006105868261133b565b6004600083815260200190815260200160002060009054906101000a900473ffffffffffffffffffffffffffffffffffffffff169050919050565b60006105cc82610995565b90508073ffffffffffffffffffffffffffffffffffffffff168373ffffffffffffffffffffffffffffffffffffffff16141561063d576040517f08c379a000000000000000000000000000000000000000000000000000000000815260040161063490612ed4565b60405180910390fd5b8073ffffffffffffffffffffffffffffffffffffffff1661065c611386565b73ffffffffffffffffffffffffffffffffffffffff16148061068b575061068a81610685611386565b611196565b5b6106ca576040517f08c379a00000000000000000000000000000000000000000000000000000000081526004016106c190612e74565b60405180910390fd5b6106d4838361138e565b505050565b6106ea6106e4611386565b82611447565b610729576040517f08c379a000000000000000000000000000000000000000000000000000000000815260040161072090612f14565b60405180910390fd5b6107348383836114dc565b505050565b6060600061076d61074984611743565b6040516020016107599190612c23565b6040516020818303038152906040526118f0565b9050600a80549050816107809190613274565b9050600a81815481106107bc577f4e487b7100000000000000000000000000000000000000000000000000000000600052603260045260246000fd5b9060005260206000200180546107d1906131c8565b80601f01602080910402602001604051908101604052809291908181526020018280546107fd906131c8565b801561084a5780601f1061081f5761010080835404028352916020019161084a565b820191906000526020600020905b81548152906001019060200180831161082d57829003601f168201915b5050505050915050919050565b61087283838360405180602001604052806000815250610cc5565b505050565b606060006108ab61088784611743565b6040516020016108979190612c67565b6040516020818303038152906040526118f0565b9050600d80549050816108be9190613274565b9050600d81815481106108fa577f4e487b7100000000000000000000000000000000000000000000000000000000600052603260045260246000fd5b90600052602060002001805461090f906131c8565b80601f016020809104026020016040519081016040528092919081815260200182805461093b906131c8565b80156109885780601f1061095d57610100808354040283529160200191610988565b820191906000526020600020905b81548152906001019060200180831161096b57829003601f168201915b5050505050915050919050565b6000806002600084815260200190815260200160002060009054906101000a900473ffffffffffffffffffffffffffffffffffffffff169050600073ffffffffffffffffffffffffffffffffffffffff168173ffffffffffffffffffffffffffffffffffffffff161415610a3e576040517f08c379a0000000000000000000000000000000000000000000000000000000008152600401610a3590612eb4565b60405180910390fd5b80915050919050565b60008073ffffffffffffffffffffffffffffffffffffffff168273ffffffffffffffffffffffffffffffffffffffff161415610ab8576040517f08c379a0000000000000000000000000000000000000000000000000000000008152600401610aaf90612e34565b60405180910390fd5b600360008373ffffffffffffffffffffffffffffffffffffffff1673ffffffffffffffffffffffffffffffffffffffff168152602001908152602001600020549050919050565b606060018054610b0e906131c8565b80601f0160208091040260200160405190810160405280929190818152602001828054610b3a906131c8565b8015610b875780601f10610b5c57610100808354040283529160200191610b87565b820191906000526020600020905b815481529060010190602001808311610b6a57829003601f168201915b5050505050905090565b610ba3610b9c611386565b8383611923565b5050565b60606000610bdb610bb784611743565b604051602001610bc79190612bbc565b6040516020818303038152906040526118f0565b9050600b8054905081610bee9190613274565b9050600b8181548110610c2a577f4e487b7100000000000000000000000000000000000000000000000000000000600052603260045260246000fd5b906000526020600020018054610c3f906131c8565b80601f0160208091040260200160405190810160405280929190818152602001828054610c6b906131c8565b8015610cb85780601f10610c8d57610100808354040283529160200191610cb8565b820191906000526020600020905b815481529060010190602001808311610c9b57829003601f168201915b5050505050915050919050565b610cd6610cd0611386565b83611447565b610d15576040517f08c379a0000000000000000000000000000000000000000000000000000000008152600401610d0c90612f14565b60405180910390fd5b610d2184848484611a90565b50505050565b60606000610d5b610d3784611743565b604051602001610d479190612b9a565b6040516020818303038152906040526118f0565b9050600c8054905081610d6e9190613274565b9050600c8181548110610daa577f4e487b7100000000000000000000000000000000000000000000000000000000600052603260045260246000fd5b906000526020600020018054610dbf906131c8565b80601f0160208091040260200160405190810160405280929190818152602001828054610deb906131c8565b8015610e385780601f10610e0d57610100808354040283529160200191610e38565b820191906000526020600020905b815481529060010190602001808311610e1b57829003601f168201915b5050505050915050919050565b6060610e508261133b565b6000600660008481526020019081526020016000208054610e70906131c8565b80601f0160208091040260200160405190810160405280929190818152602001828054610e9c906131c8565b8015610ee95780601f10610ebe57610100808354040283529160200191610ee9565b820191906000526020600020905b815481529060010190602001808311610ecc57829003601f168201915b505050505090506000610efa611aec565b9050600081511415610f10578192505050610f53565b600082511115610f45578082604051602001610f2d929190612afc565b60405160208183030381529060405292505050610f53565b610f4e84611b03565b925050505b919050565b6000610f64600761132d565b90506032811115610faa576040517f08c379a0000000000000000000000000000000000000000000000000000000008152600401610fa190612ef4565b60405180910390fd5b6000610fb582610739565b90506000610fc283610ba7565b90506000610fcf84610d27565b90506000838383604051602001610fe893929190612b20565b6040516020818303038152906040529050600061100486610877565b905060006008826009856040516020016110219493929190612b51565b604051602081830303815290604052905060006110668461104184611b6b565b604051602001611052929190612bde565b604051602081830303815290604052611b6b565b905060008160405160200161107b9190612c45565b60405160208183030381529060405290506110ca6040518060400160405280601581526020017f0a2d2d2d2d2d2d2d2d2d2d2d2d2d2d2d2d2d2d2d2d000000000000000000000081525061122a565b6110d38161122a565b6111116040518060400160405280601581526020017f2d2d2d2d2d2d2d2d2d2d2d2d2d2d2d2d2d2d2d2d0a000000000000000000000081525061122a565b61111b338a611d29565b6111258982611d47565b61112f6007611dbb565b6111526040518060600160405280602581526020016138f7602591398a33611dd1565b7febb98688741ffa4c7589bf325de30cf7becb63de567842e1ccdb6cb949fdc82c338a604051611183929190612cf0565b60405180910390a1505050505050505050565b6000600560008473ffffffffffffffffffffffffffffffffffffffff1673ffffffffffffffffffffffffffffffffffffffff16815260200190815260200160002060008373ffffffffffffffffffffffffffffffffffffffff1673ffffffffffffffffffffffffffffffffffffffff16815260200190815260200160002060009054906101000a900460ff16905092915050565b6112c08160405160240161123e9190612d34565b6040516020818303038152906040527f41304fac000000000000000000000000000000000000000000000000000000007bffffffffffffffffffffffffffffffffffffffffffffffffffffffff19166020820180517bffffffffffffffffffffffffffffffffffffffffffffffffffffffff8381831617835250505050611e70565b50565b60007f01ffc9a7000000000000000000000000000000000000000000000000000000007bffffffffffffffffffffffffffffffffffffffffffffffffffffffff1916827bffffffffffffffffffffffffffffffffffffffffffffffffffffffff1916149050919050565b600081600001549050919050565b61134481611e99565b611383576040517f08c379a000000000000000000000000000000000000000000000000000000000815260040161137a90612eb4565b60405180910390fd5b50565b600033905090565b816004600083815260200190815260200160002060006101000a81548173ffffffffffffffffffffffffffffffffffffffff021916908373ffffffffffffffffffffffffffffffffffffffff160217905550808273ffffffffffffffffffffffffffffffffffffffff1661140183610995565b73ffffffffffffffffffffffffffffffffffffffff167f8c5be1e5ebec7d5bd14f71427d1e84f3dd0314c0f7b2291e5b200ac8c7c3b92560405160405180910390a45050565b60008061145383610995565b90508073ffffffffffffffffffffffffffffffffffffffff168473ffffffffffffffffffffffffffffffffffffffff16148061149557506114948185611196565b5b806114d357508373ffffffffffffffffffffffffffffffffffffffff166114bb8461057b565b73ffffffffffffffffffffffffffffffffffffffff16145b91505092915050565b8273ffffffffffffffffffffffffffffffffffffffff166114fc82610995565b73ffffffffffffffffffffffffffffffffffffffff1614611552576040517f08c379a000000000000000000000000000000000000000000000000000000000815260040161154990612db4565b60405180910390fd5b600073ffffffffffffffffffffffffffffffffffffffff168273ffffffffffffffffffffffffffffffffffffffff1614156115c2576040517f08c379a00000000000000000000000000000000000000000000000000000000081526004016115b990612df4565b60405180910390fd5b6115cd838383611f05565b6115d860008261138e565b6001600360008573ffffffffffffffffffffffffffffffffffffffff1673ffffffffffffffffffffffffffffffffffffffff168152602001908152602001600020600082825461162891906130de565b925050819055506001600360008473ffffffffffffffffffffffffffffffffffffffff1673ffffffffffffffffffffffffffffffffffffffff168152602001908152602001600020600082825461167f9190612ffd565b92505081905550816002600083815260200190815260200160002060006101000a81548173ffffffffffffffffffffffffffffffffffffffff021916908373ffffffffffffffffffffffffffffffffffffffff160217905550808273ffffffffffffffffffffffffffffffffffffffff168473ffffffffffffffffffffffffffffffffffffffff167fddf252ad1be2c89b69c2b068fc378daa952ba7f163c4a11628f55a4df523b3ef60405160405180910390a461173e838383611f0a565b505050565b6060600082141561178b576040518060400160405280600181526020017f300000000000000000000000000000000000000000000000000000000000000081525090506118eb565b600082905060005b600082146117bd5780806117a69061322b565b915050600a826117b69190613053565b9150611793565b60008167ffffffffffffffff8111156117ff577f4e487b7100000000000000000000000000000000000000000000000000000000600052604160045260246000fd5b6040519080825280601f01601f1916602001820160405280156118315781602001600182028036833780820191505090505b5090505b600085146118e45760018261184a91906130de565b9150600a856118599190613274565b60306118659190612ffd565b60f81b8183815181106118a1577f4e487b7100000000000000000000000000000000000000000000000000000000600052603260045260246000fd5b60200101907effffffffffffffffffffffffffffffffffffffffffffffffffffffffffffff1916908160001a905350600a856118dd9190613053565b9450611835565b8093505050505b919050565b6000816040516020016119039190612ae5565b6040516020818303038152906040528051906020012060001c9050919050565b8173ffffffffffffffffffffffffffffffffffffffff168373ffffffffffffffffffffffffffffffffffffffff161415611992576040517f08c379a000000000000000000000000000000000000000000000000000000000815260040161198990612e14565b60405180910390fd5b80600560008573ffffffffffffffffffffffffffffffffffffffff1673ffffffffffffffffffffffffffffffffffffffff16815260200190815260200160002060008473ffffffffffffffffffffffffffffffffffffffff1673ffffffffffffffffffffffffffffffffffffffff16815260200190815260200160002060006101000a81548160ff0219169083151502179055508173ffffffffffffffffffffffffffffffffffffffff168373ffffffffffffffffffffffffffffffffffffffff167f17307eab39ab6107e8899845ad3d59bd9653f200f220920489ca2b5937696c3183604051611a839190612d19565b60405180910390a3505050565b611a9b8484846114dc565b611aa784848484611f0f565b611ae6576040517f08c379a0000000000000000000000000000000000000000000000000000000008152600401611add90612d94565b60405180910390fd5b50505050565b606060405180602001604052806000815250905090565b6060611b0e8261133b565b6000611b18611aec565b90506000815111611b385760405180602001604052806000815250611b63565b80611b4284611743565b604051602001611b53929190612afc565b6040516020818303038152906040525b915050919050565b60606000825190506000811415611b945760405180602001604052806000815250915050611d24565b60006003600283611ba59190612ffd565b611baf9190613053565b6004611bbb9190613084565b90506000602082611bcc9190612ffd565b67ffffffffffffffff811115611c0b577f4e487b7100000000000000000000000000000000000000000000000000000000600052604160045260246000fd5b6040519080825280601f01601f191660200182016040528015611c3d5781602001600182028036833780820191505090505b509050600060405180606001604052806040815260200161391c604091399050600181016020830160005b86811015611ce15760038101905062ffffff818a015116603f8160121c168401518060081b905060ff603f83600c1c1686015116810190508060081b905060ff603f8360061c1686015116810190508060081b905060ff603f831686015116810190508060e01b90508084526004840193505050611c68565b506003860660018114611cfb5760028114611d0b57611d16565b613d3d60f01b6002830352611d16565b603d60f81b60018303525b508484525050819450505050505b919050565b611d438282604051806020016040528060008152506120a6565b5050565b611d5082611e99565b611d8f576040517f08c379a0000000000000000000000000000000000000000000000000000000008152600401611d8690612e54565b60405180910390fd5b80600660008481526020019081526020016000209080519060200190611db69291906122fe565b505050565b6001816000016000828254019250508190555050565b611e6b838383604051602401611de993929190612d56565b6040516020818303038152906040527fe3849f79000000000000000000000000000000000000000000000000000000007bffffffffffffffffffffffffffffffffffffffffffffffffffffffff19166020820180517bffffffffffffffffffffffffffffffffffffffffffffffffffffffff8381831617835250505050611e70565b505050565b60008151905060006a636f6e736f6c652e6c6f679050602083016000808483855afa5050505050565b60008073ffffffffffffffffffffffffffffffffffffffff166002600084815260200190815260200160002060009054906101000a900473ffffffffffffffffffffffffffffffffffffffff1673ffffffffffffffffffffffffffffffffffffffff1614159050919050565b505050565b505050565b6000611f308473ffffffffffffffffffffffffffffffffffffffff16612101565b15612099578373ffffffffffffffffffffffffffffffffffffffff1663150b7a02611f59611386565b8786866040518563ffffffff1660e01b8152600401611f7b9493929190612ca4565b602060405180830381600087803b158015611f9557600080fd5b505af1925050508015611fc657506040513d601f19601f82011682018060405250810190611fc39190612642565b60015b612049573d8060008114611ff6576040519150601f19603f3d011682016040523d82523d6000602084013e611ffb565b606091505b50600081511415612041576040517f08c379a000000000000000000000000000000000000000000000000000000000815260040161203890612d94565b60405180910390fd5b805181602001fd5b63150b7a0260e01b7bffffffffffffffffffffffffffffffffffffffffffffffffffffffff1916817bffffffffffffffffffffffffffffffffffffffffffffffffffffffff19161491505061209e565b600190505b949350505050565b6120b08383612124565b6120bd6000848484611f0f565b6120fc576040517f08c379a00000000000000000000000000000000000000000000000000000000081526004016120f390612d94565b60405180910390fd5b505050565b6000808273ffffffffffffffffffffffffffffffffffffffff163b119050919050565b600073ffffffffffffffffffffffffffffffffffffffff168273ffffffffffffffffffffffffffffffffffffffff161415612194576040517f08c379a000000000000000000000000000000000000000000000000000000000815260040161218b90612e94565b60405180910390fd5b61219d81611e99565b156121dd576040517f08c379a00000000000000000000000000000000000000000000000000000000081526004016121d490612dd4565b60405180910390fd5b6121e960008383611f05565b6001600360008473ffffffffffffffffffffffffffffffffffffffff1673ffffffffffffffffffffffffffffffffffffffff16815260200190815260200160002060008282546122399190612ffd565b92505081905550816002600083815260200190815260200160002060006101000a81548173ffffffffffffffffffffffffffffffffffffffff021916908373ffffffffffffffffffffffffffffffffffffffff160217905550808273ffffffffffffffffffffffffffffffffffffffff16600073ffffffffffffffffffffffffffffffffffffffff167fddf252ad1be2c89b69c2b068fc378daa952ba7f163c4a11628f55a4df523b3ef60405160405180910390a46122fa60008383611f0a565b5050565b82805461230a906131c8565b90600052602060002090601f01602090048101928261232c5760008555612373565b82601f1061234557805160ff1916838001178555612373565b82800160010185558215612373579182015b82811115612372578251825591602001919060010190612357565b5b5090506123809190612384565b5090565b5b8082111561239d576000816000905550600101612385565b5090565b60006123b46123af84612f74565b612f4f565b9050828152602081018484840111156123cc57600080fd5b6123d7848285613186565b509392505050565b6000813590506123ee8161389a565b92915050565b600081359050612403816138b1565b92915050565b600081359050612418816138c8565b92915050565b60008151905061242d816138c8565b92915050565b600082601f83011261244457600080fd5b81356124548482602086016123a1565b91505092915050565b60008135905061246c816138df565b92915050565b60006020828403121561248457600080fd5b6000612492848285016123df565b91505092915050565b600080604083850312156124ae57600080fd5b60006124bc858286016123df565b92505060206124cd858286016123df565b9150509250929050565b6000806000606084860312156124ec57600080fd5b60006124fa868287016123df565b935050602061250b868287016123df565b925050604061251c8682870161245d565b9150509250925092565b6000806000806080858703121561253c57600080fd5b600061254a878288016123df565b945050602061255b878288016123df565b935050604061256c8782880161245d565b925050606085013567ffffffffffffffff81111561258957600080fd5b61259587828801612433565b91505092959194509250565b600080604083850312156125b457600080fd5b60006125c2858286016123df565b92505060206125d3858286016123f4565b9150509250929050565b600080604083850312156125f057600080fd5b60006125fe858286016123df565b925050602061260f8582860161245d565b9150509250929050565b60006020828403121561262b57600080fd5b600061263984828501612409565b91505092915050565b60006020828403121561265457600080fd5b60006126628482850161241e565b91505092915050565b60006020828403121561267d57600080fd5b600061268b8482850161245d565b91505092915050565b61269d81613112565b82525050565b6126ac81613124565b82525050565b60006126bd82612fba565b6126c78185612fd0565b93506126d7818560208601613195565b6126e081613361565b840191505092915050565b60006126f682612fc5565b6127008185612fe1565b9350612710818560208601613195565b61271981613361565b840191505092915050565b600061272f82612fc5565b6127398185612ff2565b9350612749818560208601613195565b80840191505092915050565b60008154612762816131c8565b61276c8186612ff2565b945060018216600081146127875760018114612798576127cb565b60ff198316865281860193506127cb565b6127a185612fa5565b60005b838110156127c3578154818901526001820191506020810190506127a4565b838801955050505b50505092915050565b60006127e1603283612fe1565b91506127ec82613372565b604082019050919050565b6000612804602583612fe1565b915061280f826133c1565b604082019050919050565b6000612827601c83612fe1565b915061283282613410565b602082019050919050565b600061284a600a83612ff2565b915061285582613439565b600a82019050919050565b600061286d602483612fe1565b915061287882613462565b604082019050919050565b6000612890601983612fe1565b915061289b826134b1565b602082019050919050565b60006128b3606383612ff2565b91506128be826134da565b606382019050919050565b60006128d6600b83612ff2565b91506128e182613575565b600b82019050919050565b60006128f9600d83612ff2565b91506129048261359e565b600d82019050919050565b600061291c602983612fe1565b9150612927826135c7565b604082019050919050565b600061293f602e83612fe1565b915061294a82613616565b604082019050919050565b6000612962600283612ff2565b915061296d82613665565b600282019050919050565b6000612985603e83612fe1565b91506129908261368e565b604082019050919050565b60006129a8602083612fe1565b91506129b3826136dd565b602082019050919050565b60006129cb600a83612ff2565b91506129d682613706565b600a82019050919050565b60006129ee601883612fe1565b91506129f98261372f565b602082019050919050565b6000612a11602183612fe1565b9150612a1c82613758565b604082019050919050565b6000612a34600a83612ff2565b9150612a3f826137a7565b600a82019050919050565b6000612a57601d83612ff2565b9150612a62826137d0565b601d82019050919050565b6000612a7a601383612fe1565b9150612a85826137f9565b602082019050919050565b6000612a9d600583612ff2565b9150612aa882613822565b600582019050919050565b6000612ac0602e83612fe1565b9150612acb8261384b565b604082019050919050565b612adf8161317c565b82525050565b6000612af18284612724565b915081905092915050565b6000612b088285612724565b9150612b148284612724565b91508190509392505050565b6000612b2c8286612724565b9150612b388285612724565b9150612b448284612724565b9150819050949350505050565b6000612b5d8287612755565b9150612b698286612724565b9150612b758285612755565b9150612b818284612724565b9150612b8c826128ec565b915081905095945050505050565b6000612ba58261283d565b9150612bb18284612724565b915081905092915050565b6000612bc7826128c9565b9150612bd38284612724565b915081905092915050565b6000612be9826129be565b9150612bf58285612724565b9150612c00826128a6565b9150612c0c8284612724565b9150612c1782612955565b91508190509392505050565b6000612c2e82612a27565b9150612c3a8284612724565b915081905092915050565b6000612c5082612a4a565b9150612c5c8284612724565b915081905092915050565b6000612c7282612a90565b9150612c7e8284612724565b915081905092915050565b6000602082019050612c9e6000830184612694565b92915050565b6000608082019050612cb96000830187612694565b612cc66020830186612694565b612cd36040830185612ad6565b8181036060830152612ce581846126b2565b905095945050505050565b6000604082019050612d056000830185612694565b612d126020830184612ad6565b9392505050565b6000602082019050612d2e60008301846126a3565b92915050565b60006020820190508181036000830152612d4e81846126eb565b905092915050565b60006060820190508181036000830152612d7081866126eb565b9050612d7f6020830185612ad6565b612d8c6040830184612694565b949350505050565b60006020820190508181036000830152612dad816127d4565b9050919050565b60006020820190508181036000830152612dcd816127f7565b9050919050565b60006020820190508181036000830152612ded8161281a565b9050919050565b60006020820190508181036000830152612e0d81612860565b9050919050565b60006020820190508181036000830152612e2d81612883565b9050919050565b60006020820190508181036000830152612e4d8161290f565b9050919050565b60006020820190508181036000830152612e6d81612932565b9050919050565b60006020820190508181036000830152612e8d81612978565b9050919050565b60006020820190508181036000830152612ead8161299b565b9050919050565b60006020820190508181036000830152612ecd816129e1565b9050919050565b60006020820190508181036000830152612eed81612a04565b9050919050565b60006020820190508181036000830152612f0d81612a6d565b9050919050565b60006020820190508181036000830152612f2d81612ab3565b9050919050565b6000602082019050612f496000830184612ad6565b92915050565b6000612f59612f6a565b9050612f6582826131fa565b919050565b6000604051905090565b600067ffffffffffffffff821115612f8f57612f8e613332565b5b612f9882613361565b9050602081019050919050565b60008190508160005260206000209050919050565b600081519050919050565b600081519050919050565b600082825260208201905092915050565b600082825260208201905092915050565b600081905092915050565b60006130088261317c565b91506130138361317c565b9250827fffffffffffffffffffffffffffffffffffffffffffffffffffffffffffffffff03821115613048576130476132a5565b5b828201905092915050565b600061305e8261317c565b91506130698361317c565b925082613079576130786132d4565b5b828204905092915050565b600061308f8261317c565b915061309a8361317c565b9250817fffffffffffffffffffffffffffffffffffffffffffffffffffffffffffffffff04831182151516156130d3576130d26132a5565b5b828202905092915050565b60006130e98261317c565b91506130f48361317c565b925082821015613107576131066132a5565b5b828203905092915050565b600061311d8261315c565b9050919050565b60008115159050919050565b60007fffffffff0000000000000000000000000000000000000000000000000000000082169050919050565b600073ffffffffffffffffffffffffffffffffffffffff82169050919050565b6000819050919050565b82818337600083830152505050565b60005b838110156131b3578082015181840152602081019050613198565b838111156131c2576000848401525b50505050565b600060028204905060018216806131e057607f821691505b602082108114156131f4576131f3613303565b5b50919050565b61320382613361565b810181811067ffffffffffffffff8211171561322257613221613332565b5b80604052505050565b60006132368261317c565b91507fffffffffffffffffffffffffffffffffffffffffffffffffffffffffffffffff821415613269576132686132a5565b5b600182019050919050565b600061327f8261317c565b915061328a8361317c565b92508261329a576132996132d4565b5b828206905092915050565b7f4e487b7100000000000000000000000000000000000000000000000000000000600052601160045260246000fd5b7f4e487b7100000000000000000000000000000000000000000000000000000000600052601260045260246000fd5b7f4e487b7100000000000000000000000000000000000000000000000000000000600052602260045260246000fd5b7f4e487b7100000000000000000000000000000000000000000000000000000000600052604160045260246000fd5b6000601f19601f8301169050919050565b7f4552433732313a207472616e7366657220746f206e6f6e20455243373231526560008201527f63656976657220696d706c656d656e7465720000000000000000000000000000602082015250565b7f4552433732313a207472616e736665722066726f6d20696e636f72726563742060008201527f6f776e6572000000000000000000000000000000000000000000000000000000602082015250565b7f4552433732313a20746f6b656e20616c7265616479206d696e74656400000000600082015250565b7f54484952445f574f524400000000000000000000000000000000000000000000600082015250565b7f4552433732313a207472616e7366657220746f20746865207a65726f2061646460008201527f7265737300000000000000000000000000000000000000000000000000000000602082015250565b7f4552433732313a20617070726f766520746f2063616c6c657200000000000000600082015250565b7f222c20226465736372697074696f6e223a20224120686967686c79206163636c60008201527f61696d656420636f6c6c656374696f6e206f6620737175617265732e222c202260208201527f696d616765223a2022646174613a696d6167652f7376672b786d6c3b6261736560408201527f36342c0000000000000000000000000000000000000000000000000000000000606082015250565b7f5345434f4e445f574f5244000000000000000000000000000000000000000000600082015250565b7f3c2f746578743e3c2f7376673e00000000000000000000000000000000000000600082015250565b7f4552433732313a2061646472657373207a65726f206973206e6f74206120766160008201527f6c6964206f776e65720000000000000000000000000000000000000000000000602082015250565b7f45524337323155524953746f726167653a2055524920736574206f66206e6f6e60008201527f6578697374656e7420746f6b656e000000000000000000000000000000000000602082015250565b7f227d000000000000000000000000000000000000000000000000000000000000600082015250565b7f4552433732313a20617070726f76652063616c6c6572206973206e6f7420746f60008201527f6b656e206f776e6572206e6f7220617070726f76656420666f7220616c6c0000602082015250565b7f4552433732313a206d696e7420746f20746865207a65726f2061646472657373600082015250565b7f7b226e616d65223a202200000000000000000000000000000000000000000000600082015250565b7f4552433732313a20696e76616c696420746f6b656e2049440000000000000000600082015250565b7f4552433732313a20617070726f76616c20746f2063757272656e74206f776e6560008201527f7200000000000000000000000000000000000000000000000000000000000000602082015250565b7f46495253545f574f524400000000000000000000000000000000000000000000600082015250565b7f646174613a6170706c69636174696f6e2f6a736f6e3b6261736536342c000000600082015250565b7f4d617820537570706c793a203530204e46547300000000000000000000000000600082015250565b7f434f4c4f52000000000000000000000000000000000000000000000000000000600082015250565b7f4552433732313a2063616c6c6572206973206e6f7420746f6b656e206f776e6560008201527f72206e6f7220617070726f766564000000000000000000000000000000000000602082015250565b6138a381613112565b81146138ae57600080fd5b50565b6138ba81613124565b81146138c557600080fd5b50565b6138d181613130565b81146138dc57600080fd5b50565b6138e88161317c565b81146138f357600080fd5b5056fe416e204e465420772f20494420257320686173206265656e206d696e74656420746f2025734142434445464748494a4b4c4d4e4f505152535455565758595a6162636465666768696a6b6c6d6e6f707172737475767778797a303132333435363738392b2fa264697066735822122028338bce164818a87aedede0fcea73dbb8c4e9c7eadddec842e4e971e655bdcb64736f6c634300080100333c73766720786d6c6e733d27687474703a2f2f7777772e77332e6f72672f323030302f73766727207072657365727665417370656374526174696f3d27784d696e594d696e206d656574272076696577426f783d273020302033353020333530273e3c7374796c653e2e62617365207b2066696c6c3a2077686974653b20666f6e742d66616d696c793a2073657269663b20666f6e742d73697a653a20323470783b207d3c2f7374796c653e3c726563742077696474683d273130302527206865696768743d2731303025272066696c6c3d27272f3e3c7465787420783d273530252720793d273530252720636c6173733d27626173652720646f6d696e616e742d626173656c696e653d276d6964646c652720746578742d616e63686f723d276d6964646c65273e",
  "linkReferences": {},
  "deployedLinkReferences": {}
}